:020000040000FA
:10000000F80B0020710F000083100000EFB2000019
:1000100019B3000043B3000097B300006DB30000B4
:10002000000000000000000000000000C96E000099
:100030008B10000000000000931000009B100000D7
:100040000000000000000000000000008D8500009E
:1000500000000000A31000000000000000000000ED
:10006000AB100000B3100000BB100000C310000074
:1000700000000000CB100000D3100000DB100000D7
:10008000E3100000EB100000000000000000000082
:10009000F3100000FB100000000000000000000052
:1000A0000311000000000000000000000B11000020
:1000B000131100001B110000231100002B11000080
:1000C000331100003B110000431100004B110000F0
:1000D00053110000000000005B1100000000000050
:1000E00063110000000000006B1100000000000020
:1000F000731100000000000000000000000000007C
:10010000000000007B110000000000000000000063
:1001100000000000000000000000000000000000DF
:10012000000000008311000000000000000000003B
:1001300000000000000000000000000000000000BF
:100140008B11000000015F5F02000000FE0B000049
:100150009D6F00008006000000000000000000000D
:100160000000000000000000000000000100FFC3CC
:10017000000000C4C02200200000000001015F5FF9
:10018000030100001F010000A7070000000000009D
:10019000000000000100000001000000000000005D
:1001A000000000000000000000000000000000004F
:1001B000000000007000000038B80000800000005F
:1001C000000F000001000000D707000001015F5F81
:1001D000040100001F0100003B0B000000000000B4
:1001E000000000000000000001000000000000000E
:1001F00000000000000000000000000000000000FF
:100200000000000044B800004000000005070000A6
:0802100001000000FF0A0000DC
:1002200080B483B000AF7860044A7B68C2F80434BD
:10023000002318460C37BD4680BC7047201C0020A8
:1002400080B483B000AF7860054BD3F804247B689A
:100250001A60002318460C37BD4680BC704700BFAB
:10026000201C002080B483B000AF786039607B68C8
:1002700013F1040F02D96FF08C031FE07B68033386
:1002800023F003037B60104BD3F80034C3F5806385
:100290007A689A4202D96FF08C030FE00A4BD3F8C8
:1002A0000034094A1A443B681A60074BD3F800240B
:1002B0007B681344044AC2F80034002318460C3704
:1002C000BD4680BC704700BF201C002080B500AF39
:1002D000084B0022C3F80424064BD3F800341A4616
:1002E000002104480BF017F9024B0022C3F8002448
:1002F00000BF80BD201C002080B58AB000AFF86030
:10030000B9607A603B606FF096037B62FB681B68A4
:100310003B620023BB6100233B6100237B61002320
:10032000FB77FB685B68402B02D06FF080039AE09C
:100330003B6A1B8D1B0A9BB2BB77BB7F032B04D090
:10034000BB7F012B01D0012300E00023FB77FB7F63
:1003500003F00103FB77FB7F002B0FD007F118039D
:10036000184600F0E8F878627B6A002B01D07B6ABF
:1003700079E03B6A1B683B61BB697B61BB7F013BEA
:10038000092B6BD801A252F823F000BF3F040000F4
:10039000B5030000C7030000D3030000E50300001D
:1003A000F7030000090400001B0400002D040000F6
:1003B0004B04000007F110031A467968F86800F052
:1003C00077FA03464FE07968F86800F024FA0346AC
:1003D00049E007F110031A467968F86800F027FA37
:1003E000034640E007F110031A467968F86800F008
:1003F00005FA034637E007F110031A467968F868F2
:1004000000F022FA03462EE007F110031A4679683D
:10041000F86800F026FA034625E007F110031A46B3
:100420007968F86800F02AFA03461CE007F1100327
:100430001A467968F86800F02EFA034613E07968E6
:10044000F86800F042FA03460DE007F110031A467F
:100450007968F86800F056FA034604E004480BF0A7
:1004600098F96FF0850318462837BD4680BD00BF58
:10047000480B000080B582B000AF6FF083037B6053
:1004800000233B6000F028F8386039680A480BF018
:1004900080F900F02FF878607B68002B01D07B6832
:1004A00006E0396805480BF074F908F0A9FF034627
:1004B00018460837BD4680BD700B0000980B000041
:1004C00080B500AF2822002102480BF024F8002359
:1004D000184680BD2820002080B500AF0F220349B8
:1004E00003480AF0D2FF024B184680BDD40B00002F
:1004F0005020002080B500AF0121064800F0DAFC52
:10050000054808F0F3FE012104480BF042F90023EE
:10051000184680BD64200020F3080000E40B0000B2
:1005200080B582B000AF78607868FFF779FE00BFD1
:100530000837BD4680BD80B582B000AF786078686E
:10054000FFF77EFE034618460837BD4680BDB0B5AE
:1005500088B000AFF860B9607A603B6000237B61CF
:100560000123FB612EE0FB68FA69043253F8223064
:1005700007F1140211461846FFF774FEB861BB6913
:10058000002B03D0FFF7A2FEBB694DE0FB68586863
:100590007969FB68FA69043253F82250FB69DB0081
:1005A000BA68D4182B460A46F9690BF027F80346B7
:1005B0006360FB69DB00BA6813447A691A60FB69FF
:1005C0000133FB61FA697B689A42CCD30023FB615B
:1005D00025E0FB68FA69083253F8223007F114026B
:1005E00011461846FFF73EFEB861BB69002B03D0E9
:1005F000FFF76CFEBB6917E0FB69DB003A68134448
:100600007A691A60FB69DB003A681344FA68F96991
:10061000083152F821205A60FB690133FB61FA6905
:100620003B6B9A42D5D3002318462037BD46B0BD58
:1006300080B5A8B002AF78600023C7F888300423E3
:10064000C7F894300423C7F8903007F168032022DC
:10065000002118460AF05FFF07F14803202200211D
:1006600018460AF058FF07F10803402200211846F7
:100670000AF051FF04E0D7F89430013BC7F89430FA
:10068000D7F89430002B0ED0D7F894305A1E7B68E0
:10069000043253F82230002BEDD004E0D7F890302C
:1006A000013BC7F89030D7F89030002B08D0D7F82E
:1006B00090305A1E7B68083253F82230002BEDD060
:1006C000D7F89430002B02D16FF0830360E07B6891
:1006D000586807F10802402300210AF08FFF034603
:1006E000402B02D06FF0830352E007F10803BB6692
:1006F0004023FB6607F1480207F16801D7F8903004
:1007000000931346D7F894207868FFF720FFC7F8C6
:100710008800D7F88830002B02D0D7F8883037E02F
:100720007B689B681846FFF7FBFE07F1480207F15C
:100730006800D7F89030D7F89410FFF7DDFDC7F8C0
:1007400088000023C7F88C3018E07B685868D7F819
:100750008C30DB0098333B4453F8502CD7F88C3066
:10076000DB0098333B4453F84C3CD7F88C100AF02C
:1007700064FFD7F88C300133C7F88C30D7F88C2061
:10078000D7F890309A42E0D3FFF7A0FDD7F8883031
:1007900018469837BD4680BD80B500AFFFF790FE84
:1007A0000346184680BD80B582B000AFFFF7F4FF66
:1007B00078607B68002B01D07B6808E0FFF75AFE69
:1007C00078607B68002B01D07B6800E0002318462E
:1007D0000837BD4680BD80B582B000AF78607B68C9
:1007E0001B68002B04D17868FFF722FF034601E065
:1007F0006FF0850318460837BD4680BD80B485B0CC
:1008000000AFF860B9607A606FF08503184614375E
:10081000BD4680BC704780B483B000AF786039605B
:100820006FF0850318460C37BD4680BC704780B416
:1008300085B000AFF860B9607A606FF08503184644
:100840001437BD4680BC704780B485B000AFF860F7
:10085000B9607A606FF0850318461437BD4680BCD6
:10086000704780B485B000AFF860B9607A606FF00F
:10087000850318461437BD4680BC704780B485B0E8
:1008800000AFF860B9607A606FF0850318461437DE
:10089000BD4680BC704780B485B000AFF860B960D9
:1008A0007A606FF0850318461437BD4680BC7047E8
:1008B00080B485B000AFF860B9607A606FF08503EE
:1008C00018461437BD4680BC704780B584B000AF71
:1008D000786039603B681B68FB603B685B68BB60A5
:1008E000B968F86808F04EFD034618461037BD4653
:1008F00080BD0FB480B400AF00231846BD4680BC55
:1009000004B0704780B485B000AFF860B9607A6019
:100910006FF0850318461437BD4680BC704780B51C
:1009200000AF05F081F90023184680BD80B582B084
:1009300000AF7860FFF7F3FF034618460837BD465F
:1009400080BD80B5AEB000AF78600023C7F8B4308A
:100950000023C7F8B03007F1940300221A605A60F0
:1009600007F18C0300221A605A600023FB6407F130
:1009700050033C22002118460AF0CDFD0023FB6005
:1009800007F110033C22002118460AF0C4FD0023A1
:10099000BB600123C7F8A4300023C7F8A0300423AC
:1009A000C7F8AC300423C7F8A83004E0D7F8AC305F
:1009B000013BC7F8AC30D7F8AC30002B0ED0D7F8DD
:1009C000AC305A1E7B68043253F82230002BEDD035
:1009D00004E0D7F8A830013BC7F8A830D7F8A83012
:1009E000002B08D0D7F8A8305A1E7B68083253F87D
:1009F0002230002BEDD0D7F8AC30002B07D0D7F841
:100A0000AC30022B03D8D7F8A830012B01D9012331
:100A100071E07B68586807F10802042300210AF09E
:100A2000EDFD0346C7F8A030D7F8A030042B02D064
:100A30006FF080035FE0D7F8AC30012B2BD97B68D7
:100A40005B69C7F89C30D7F89C30402B02D96FF017
:100A5000890350E07B6858687B685B6907F14C024A
:100A600001210AF0CBFD0346C7F8A030D7F8A0302B
:100A7000D7F89C209A4202D06FF080033BE007F148
:100A80004C03C7F89430D7F89C30C7F8983007F17A
:100A90009403C7F8B430D7F8A830002B12D07B6885
:100AA0001B6A402B02D96FF0800324E007F10C038E
:100AB000C7F88C307B681B6AC7F8903007F18C034D
:100AC000C7F8B030BB68D7F8B020D7F8B4101846D4
:100AD00005F004F9C7F8A400D7F8B030002B08D00F
:100AE0007B685868D7F88C20D7F8903000210AF03E
:100AF000A4FDD7F8A4301846B837BD4680BD80B5F0
:100B000082B000AF78607B681B68B3F57D7F04D04E
:100B100040F2F532934205D009E07868FFF706FF0E
:100B2000034606E07868FFF70CFF034601E06FF02C
:100B3000850318460837BD4680BD80B400AF00234A
:100B40001846BD4680BC70475B4552525D5B4372A0
:100B50007970746F5D20556E737570706F72746507
:100B6000642072657175657374210D0A00000000C0
:100B70005B4442475D5B43727970746F5D20496EE0
:100B80006974201B5B303B33326D25731B5B306D0A
:100B90002E2E2E0D0A0000005B4442475D5B43721F
:100BA0007970746F5D20496E6974201B5B303B3334
:100BB000326D25731B5B306D2E2E2E201B5B303B60
:100BC00033326D636F6D706C6574651B5B306D2EB9
:100BD0000D0A00004D62656420544C5320332E36BC
:100BE0002E3400005B4442475D5B43727970746F42
:100BF0005D20496E7465726E616C2068656170205D
:100C000073697A652069732025642062797465733D
:100C10000D0A00000F4B02689A4206D1C269A3F187
:100C20001023A3F1EF139A4201D00120704783688B
:100C3000012BFAD8C36813B102699342F5D0436916
:100C40002BB18069C01AB0FA80F04009704718468D
:100C5000704700BF55AA00FFF8B5164B996829B137
:100C60000846FFF7D7FF08B9CB680BB10120F8BDE4
:100C70000B69002BFBD0104D104E1A68AA42F5D11B
:100C8000DA69B242F2D19A68012AEFD8DC68002C06
:100C9000ECD01A699442E9D05F691FB1D3F818C04B
:100CA0006745E3D08C42E1D11946002ADFD01346D4
:100CB000E3E700BF6820002055AA00FF669911EE07
:100CC000002865D070B5374D2B68002B54D0AA682A
:100CD000002A51D08342014661D86A681344984281
:100CE0005DD2A0F120063046FFF794FF002856D1D0
:100CF00051F8183C012B52D151F8144C41F8180C02
:100D000051F8100C002C38D0A368002B35D151F8C5
:100D10001C2C6368203213442061636000B1C460FE
:100D20002022002130460AF0F6FB2069F0B18368EA
:100D3000E3B926464268736813440269203373603E
:100D40003261D6E9051331B38B6103B15961416951
:100D500083697161B361E1B18E61B36903B15E61B1
:100D600002B1D660202200210AF0D5FB2B699B0737
:100D700002D5FFF771FF90B970BD10B18368002BE9
:100D8000D8D0EB6841F8083C03B15E61EE60EDE756
:100D90007047EE60E2E7002BD9D0EB60D6E7012088
:100DA0000AF060FA682000202DE9F84F3E4D2B68CC
:100DB000EC68002B40D0AB68002B3DD000283BD026
:100DC000002939D001FB00F6B6FBF0F0884233D1A0
:100DD000301D31D8B10733D026F00301043114B9E6
:100DE0002BE0A4694CB363688B42FAD3D4F808C0F3
:100DF000BCF1000F55D1A0695B1A232B81466769AE
:100E000020D80123A360002F47D0B861A06900B1AA
:100E1000476100232A696361D207A36103D5FFF705
:100E20001BFF00283DD120343246002120460AF025
:100E300072FB2046BDE8F88F00242046BDE8F88FFD
:100E40003146CCE7D4F8108001F1200EDFF85CB019
:100E5000DFF85CA004EB0E02203BC2E9013CC2E9D2
:100E6000034844F80EB0C2F81CA0B8F1000F01D03E
:100E7000C8F80C20C2F81890576187B1BA61906920
:100E800000B1426100236160296922610122C4E945
:100E90000533CB07A260C6D5C1E7E860B7E7EA60D3
:100EA000EEE701200AF0DEF96820002055AA00FFD5
:100EB000669911EE38B50D461422002104461148FA
:100EC0000AF029FB1049114808F002FA232D18D91D
:100ED00014F0030304D0043DC3F104021D44144480
:100EE0002A46002120460AF016FB064B084A09480C
:100EF000A5F12001C3E901541C60E061C4E90021AF
:100F0000DC6038BD68200020C10C0000A90D000085
:100F100055AA00FF669911EE0000000000000000D5
:100F2000687E000001000000698D0000418D000016
:100F300040FC0000802000206B00000040FC00000E
:100F4000201C00200000000040FC0000001C0020CD
:100F500000000000201C002018010000001C0020E0
:100F60000800000080B500AF06F022FE00BF80BD83
:100F700080B588B000AF72B600BF314B314A9A607D
:100F8000314B3B603B6883F3098800BF2F4B7B608C
:100F90007B6883F30A8800BF2C4BBB60BB6883F37C
:100FA0000B8800BF2A4BFB60F96823A3D3E9002319
:100FB000C1E9002300BF00F0F3F9264BFB6119E003
:100FC0000023BB610EE0FB691A68BB699B001A44F1
:100FD000FB695968BB699B000B4412681A60BB69C6
:100FE0000133BB61FB699B68BA699A42EBD3FB6929
:100FF0000C33FB61FB69184A9342E1D3174B7B61C9
:1010000014E000233B6109E07B691A683B699B009F
:10101000134400221A603B6901333B617B695B68C2
:101020003A699A42F0D37B6908337B617B690C4A49
:101030009342E6D307F0ACFEA5EDF5FEA5EDF5FE77
:1010400000ED00E000000000F80B0020000400208C
:10105000F80B0020300F0000540F0000540F000068
:10106000640F0000EFF30880EFF309812DE9F00F22
:101070006B46724600F084FB08B0FFF773FFFEE793
:1010800000BF80B500AFFFF7EDFF80B500AFFFF701
:10109000E9FF80B500AFFFF7E5FF80B500AFFFF7D0
:1010A000E1FF80B500AFFFF7DDFF80B500AFFFF7D0
:1010B000D9FF80B500AFFFF7D5FF80B500AFFFF7D0
:1010C000D1FF80B500AFFFF7CDFF80B500AFFFF7D0
:1010D000C9FF80B500AFFFF7C5FF80B500AFFFF7D0
:1010E000C1FF80B500AFFFF7BDFF80B500AFFFF7D0
:1010F000B9FF80B500AFFFF7B5FF80B500AFFFF7D0
:10110000B1FF80B500AFFFF7ADFF80B500AFFFF7CF
:10111000A9FF80B500AFFFF7A5FF80B500AFFFF7CF
:10112000A1FF80B500AFFFF79DFF80B500AFFFF7CF
:1011300099FF80B500AFFFF795FF80B500AFFFF7CF
:1011400091FF80B500AFFFF78DFF80B500AFFFF7CF
:1011500089FF80B500AFFFF785FF80B500AFFFF7CF
:1011600081FF80B500AFFFF77DFF80B500AFFFF7CF
:1011700079FF80B500AFFFF775FF80B500AFFFF7CF
:1011800071FF80B500AFFFF76DFF80B500AFFFF7CF
:1011900069FF000080B400AFBFF34F8F00BF064B64
:1011A000DB6803F4E0620449044B1343CB60BFF3F4
:1011B0004F8F00BF00BFFDE700ED00E00400FA051F
:1011C00080B483B000AF104B1B68C3F30B037B608C
:1011D0000E4B1B683B60BFF34F8F00BF7B68092B32
:1011E0000CD13B68012B03D03B68022B02D003E0FB
:1011F000012304E0012302E0012300E0002318465C
:101200000C37BD4680BC70473001FF003401FF0041
:1012100080B483B000AF104B1B68C3F30B037B603B
:101220000E4B1B683B60BFF34F8F00BF7B68092BE1
:101230000CD13B68012B03D03B68022B02D003E0AA
:10124000012304E0012302E0012300E0002318460B
:101250000C37BD4680BC70473001FF003401FF00F1
:1012600080B483B000AF104B1B68C3F30B037B60EB
:101270000E4B1B683B60BFF34F8F00BF7B68092B91
:101280000CD13B68012B03D03B68022B02D003E05A
:10129000012304E0002302E0002300E000231846BD
:1012A0000C37BD4680BC70473001FF003401FF00A1
:1012B00080B483B000AF104B1B68C3F30B037B609B
:1012C0000E4B1B683B60BFF34F8F00BF7B68092B41
:1012D0000CD13B68012B03D03B68022B02D003E00A
:1012E000002304E0012302E0012300E0002318466C
:1012F0000C37BD4680BC70473001FF003401FF0051
:1013000080B483B000AF104B1B68C3F30B037B604A
:101310000E4B1B683B60BFF34F8F00BF7B68092BF0
:101320000CD13B68012B03D03B68022B02D003E0B9
:10133000012304E0002302E0002300E0002318461C
:101340000C37BD4680BC70473001FF003401FF0000
:1013500080B483B000AF104B1B68C3F30B037B60FA
:101360000E4B1B683B60BFF34F8F00BF7B68092BA0
:101370000CD13B68012B03D03B68022B02D003E069
:10138000012304E0012302E0012300E000231846CA
:101390000C37BD4680BC70473001FF003401FF00B0
:1013A00080B586B000AF784B1B68774A43F00203E4
:1013B0001360FFF705FF0346002B09D04FF05023C1
:1013C0000022C3F814214FF050230022C3F8182143
:1013D000FFF746FF0346002B06D06C4B01221A6034
:1013E0006B4B0122C3F87825FFF762FF0346002B01
:1013F00003D0674B0122C3F87825FFF781FF03462E
:10140000002B02D0634B0E221A60FFF7A1FF0346A8
:10141000002B05D0604B00221A60604B01221A603D
:1014200000237B6111E04FF47F024FF47F017B6961
:10143000603351F8333019467B696033DB00134465
:101440005B680B607B6901337B617B69FF2B0ED886
:101450007B69DB0003F57F0303F54073184602F058
:1014600078FC034683F00103DBB2002BDBD1EFF302
:1014700010837B607B68012B0CBF01230023FB746E
:1014800000F0C6F80346002B04D100F08FF80346A5
:10149000002B6AD0BFF34F8F00BF00BF404BD3F883
:1014A0000034012BFAD13E4B0122C3F8042500BFC2
:1014B0003B4BD3F80034012BFAD1FB7C83F00103C2
:1014C000DBB2002B06D0FFF7A3FE0346002B01D0B2
:1014D00072B600BF00F09CF80346002B12D0314BCF
:1014E000DB69FB60FB6823F00103BB602D4ABB682E
:1014F000D361BFF34F8F00BF00BF294BD3F8003437
:10150000012BFAD100F052F80346002B14D0254BE2
:101510001B6AFB60FB6823F0FF0343F02003BB6002
:10152000204ABB681362BFF34F8F00BF00BF1C4B44
:10153000D3F80034012BFAD1FB7C83F00103DBB23A
:10154000002B06D0FFF764FE0346002B01D062B6E5
:1015500000BF134B0022C3F8042500BF104BD3F883
:101560000034012BFAD1FFF715FE0F4BD3F88C3066
:101570000D4A43F44063C2F88C3002F0E0FB00BF38
:101580001837BD4680BD00BFD0ED00E0384A00509E
:1015900000400050E4AE03500C470050104700508C
:1015A000009003500080FF0000ED00E080B582B0A5
:1015B00000AFEFF310833B603B68012B0CBF0123AE
:1015C0000023FB71FB7983F00103DBB2002B06D013
:1015D000FFF71EFE0346002B01D072B600BF0B487A
:1015E00002F0B7FB0346BB71FB7983F00103DBB26A
:1015F000002B06D0FFF70CFE0346002B01D062B68D
:1016000000BFBB7918460837BD4680BD2080FF006B
:1016100080B584B000AFEFF310833B603B68012BD3
:101620000CBF01230023FB73FB7B83F00103DBB2C0
:10163000002B06D0FFF7ECFD0346002B01D072B65D
:1016400000BF104BDB69BB60BFF34F8F00BFBB68AF
:1016500003F00103002B14BF01230023FB71FB7B6C
:1016600083F00103DBB2002B06D0FFF7D1FD034668
:10167000002B01D062B600BFFB7918461037BD467B
:1016800080BD00BF0080FF0080B584B000AF7860EF
:101690000023FB730E212A4802F071FB7B681B6854
:1016A000033B042B2BD801A252F823F0C1160000F3
:1016B000CB160000D9160000E7160000F516000052
:1016C0000C21204802F05BFB30E012211E4802F0A2
:1016D00056FB0123FB7329E00B211C4802F04FFB52
:1016E0000123FB7322E00D21194802F048FB01237E
:1016F000FB731BE00E21174802F041FB16E07B68EC
:101700001B680F2B07D87B681B681A4614211248E8
:1017100006F054FA07E07B681B68103B1A46252147
:101720000E4806F04BFA0123FB7300BFFB7B796880
:10173000184602F0B7FB00BF1037BD4680BD00BFA2
:1017400098860000A8860000B4860000C8860000C5
:10175000D4860000E4860000F486000008870000BC
:1017600080B582B000AF78607C220449786809F0C7
:101770008CFE00BF0837BD4680BD00BF5C2900203D
:1017800080B586B000AFF860B9607A603B60394BD5
:101790007B61394B5B68C3F308027B691A60EFF326
:1017A00003833B613A697B695A657B697A685A6051
:1017B0007B69FA689A607B69BA68DA607B69586805
:1017C0007B6999687B69DB681A4602F043FB024635
:1017D0007B691A617B6903F114007B691B69202214
:1017E000194609F052FE3B68002B06D07B69343362
:1017F00020223968184609F048FE1F4B9A6A7B6917
:101800009A651D4BDA6A7B69DA651B4B9A6B7B69BB
:101810001A667B699B6D03F400427B695A66164B1E
:101820005A6B7B699A667B699B6D03F080027B69CA
:10183000DA66114A7B699B6D93620F4A7B69DB6DA7
:10184000D3620E4B5A697B691A670C4B9A697B69A4
:101850005A677B691B6F03F040027B699A67074AEE
:101860007B691B6F53617869FFF70EFF00BF183764
:10187000BD4680BD5C29002000ED00E0D0ED00E019
:1018800080B584B000AF786039600F4B5B69396810
:1018900078689847F860FB68002B01D000230EE0C1
:1018A00000BF094BDB6A98470346DBB203F0010334
:1018B000DBB2002BF5D1044B1B6A98470346184650
:1018C0001037BD4680BD00BF5C87000080B582B088
:1018D00000AF4FF0FF337B60304B9B680020984790
:1018E00078607B68002B0DD008212D4802F047FA64
:1018F0000B212C4802F043FA842202212A4806F0E8
:101900005DF9FEE7254B1B690220984778607B68EC
:10191000002B0DD00821224802F031FA0B2121487A
:1019200002F02DFA8A2202211F4806F047F9FEE74D
:101930001A4B9B6A4FF4E1310120984778607B682D
:10194000002B0DD00821164802F019FA0B2115487A
:1019500002F015FA90220221134806F02FF9FEE753
:101960000E4B9B6A01211520984778607B68002BFD
:101970000DD008210A4802F002FA0B21094802F0B2
:10198000FEF996220221084806F018F9FEE7074BF7
:1019900001221A700837BD4680BD00BF5C87000079
:1019A000308700003C87000038870000DC380020CA
:1019B00080B487B000AFF860B9607A6000237B61C3
:1019C00035E07B699B00BA6813441B68C3F30803C6
:1019D0003B613B6940F2FF12934202D14FF0FF336B
:1019E0003B617B699B00BA6813441B685B0C032B4B
:1019F0001AD801A252F823F0091A0000111A0000A7
:101A0000191A0000211A0000FB683A691A600BE0FD
:101A1000FB683A695A6007E0FB683A699A6003E03C
:101A2000FB683A69DA6000BF7B6901337B617A69E0
:101A30007B689A42C5D300BF00BF1C37BD4680BC3F
:101A4000704700BF80B483B000AF074B1B687B605A
:101A50000023BA8862F30F03FA8862F31F43184623
:101A60000C37BD4680BC70474887000080B586B003
:101A700000AFF860B9607A607B68D3F88C307B6126
:101A80007A6807F110039032126811461980023308
:101A9000120C1A70BB689C4A934200F0D680BB6857
:101AA000994A934200F2D580BB68B3F5612F00F0EC
:101AB000C880BB68B3F5612F00F2CB80BB68B3F57B
:101AC000E12F00F0BA80BB68B3F5E12F00F2C180CE
:101AD000BB688E4A934200F0AC80BB688B4A93424D
:101AE00000F2B780BB68B3F5613F00F09E80BB6831
:101AF000B3F5613F00F2AD80BB68B3F5E13F00F0A4
:101B00009080BB68B3F5E13F00F2A380BB68B3F5FA
:101B1000963F00F08380BB68B3F5963F00F2998052
:101B2000BB68B3F5614F75D0BB68B3F5614F00F288
:101B30009080BB684DF6C022934267D0BB684DF6DB
:101B4000C022934200F28580BB68B3F5164F59D08E
:101B5000BB68B3F5164F7CD8BB6847F61222934298
:101B60004CD0BB6847F61222934272D8BB68B3F5DB
:101B7000E14F40D0BB68B3F5E14F6AD8BB68B3F51D
:101B8000964F35D0BB68B3F5964F62D8BB68B3F5B6
:101B9000615F2AD0BB68B3F5615F5AD8BB68B3F503
:101BA000165F1FD0BB68B3F5165F52D8BB68B3F59C
:101BB000965F14D0BB68B3F5965F4AD8BB68B3F59F
:101BC000966F04D0BB68B3F5166F04D041E04FF4B4
:101BD0009E237B6140E04FF41D237B613CE04C4B36
:101BE0007B6139E04B4B7B6136E04B4B7B6133E0F3
:101BF0004A4B7B6130E04A4B7B612DE04FF40003A0
:101C00007B6129E04FF41D037B6125E04FF4650300
:101C10007B6121E04FF46B037B611DE0414B7B61F5
:101C20001AE04FF0EB737B6116E04FF06C737B6151
:101C300012E04FF080637B610EE04FF0E8637B6160
:101C40000AE04FF070637B6106E04FF080537B61E8
:101C500002E06FF0070353E0FB6803F4E063002B3E
:101C600002D06FF008034BE0FB6803F44043002B05
:101C700003D0B3F5804F03D005E00023BB7405E02B
:101C80001023BB7402E06FF00A0339E0FB6803F431
:101C90004053002B03D0B3F5805F03D005E0002351
:101CA0007B7405E00E237B7402E06FF0090327E0EC
:101CB000FB6803F44033002B03D0B3F5403F03D05F
:101CC00005E000233B7405E001233B7402E06FF064
:101CD0000B0315E07B687A69C3F88C207B6890332E
:101CE00007F110021268114619800233120C1A70A3
:101CF0007A687B6864331946104600F03BFB00238A
:101D000018461837BD4680BD40420F0090D00300F2
:101D100000B013000050270000F03A0000A04E0071
:101D200000C0750000903A0180B582B000AF7860C5
:101D30000449786802F0EBF8034618460837BD46B8
:101D400080BD00BF8420002080B500AF024802F0B3
:101D500006F90346184680BD8420002080B582B075
:101D600000AF0346FB71FB790449184602F004F901
:101D7000034618460837BD4680BD00BF84200020BA
:101D800080B582B000AF78603960054A39687868FC
:101D900002F004F9034618460837BD4680BD00BF6F
:101DA0008420002080B582B000AF78603960054A99
:101DB0003968786802F052F9034618460837BD467C
:101DC00080BD00BF8420002080B500AF024802F033
:101DD000BCF90346184680BD8420002080B500AFC2
:101DE000024802F0BDF90346184680BD8420002059
:101DF00080B582B000AF78603960054A396878688C
:101E000002F0E3F9034618460837BD4680BD00BF1F
:101E10008420002080B483B000AF0346FB7197F9A3
:101E20000730002B0BDBFB7903F01F02064997F903
:101E300007305B09012000FA02F241F8232000BFBD
:101E40000C37BD4680BC704700E100E080B483B031
:101E500000AF0346FB7197F90730002B12DBFB79CB
:101E600003F01F020A4997F907305B09012000FAC5
:101E700002F2203341F82320BFF34F8F00BFBFF39E
:101E80006F8F00BF00BF0C37BD4680BC704700BFDE
:101E900000E100E080B483B000AF03463960FB711D
:101EA00097F90730002B0ADB3B68DAB20C4997F947
:101EB00007305201D2B20B4483F800230AE03B689A
:101EC000DAB20849FB7903F00F03043B5201D2B2A6
:101ED0000B441A7600BF0C37BD4680BC704700BF6C
:101EE00000E100E000ED00E080B483B000AF134BF0
:101EF0001B68C3F30B037B60BFF34F8F00BF104B16
:101F00001B683B60BFF34F8F00BFBFF34F8F00BF15
:101F10007B68092B0CD13B68012B03D03B68022B5B
:101F200002D003E0012304E0012302E0012300E0EA
:101F3000002318460C37BD4680BC70473001FF00B7
:101F40003401FF0080B584B000AF78607B68002B5F
:101F500011D00B4B43F00103FB600A4B1B680A4A8C
:101F6000A2FB03239A0C7B6802FB03F3BB60FB68B4
:101F7000B868984700E000BF1037BD4680BD00BF7D
:101F8000C08700008020002083DE1B4380B584B022
:101F900000AF78607B681B68184602F047FE034676
:101FA00083F00103DBB2002B0ED00821164801F0AC
:101FB000E6FE1921154801F0E2FE4FF47472022189
:101FC000134805F0FBFDFEE70023FB60786802F094
:101FD00052FE0346002B02D10E4BFB600EE008219F
:101FE000094801F0CCFE1921084801F0C8FE40F272
:101FF000D9320221064805F0E1FDFEE7FB681846EC
:102000001037BD4680BD00BF94870000A087000048
:102010009C8700000025845080B586B000AF7860B2
:10202000084611461A460346FB700B46BB70134622
:102030007B703B1D1846FFF7A9FF78617A687B69C2
:10204000803253F822303B61114BFB60FB68DB436D
:102050003A6913403B61FA78BB785B001A437B789E
:102060009B001A4397F820301B021A4397F824303C
:102070001B0413433A6913433B617A687B698032DE
:10208000396943F8221000BF1837BD4680BD00BF34
:102090000F07030080B58AB000AF786039607B68B5
:1020A00004337B623B6893F8303083F00103DBB28A
:1020B000002B20D07B6ADB6C43F000731A467B6AEE
:1020C000DA643B681B68B3F1FF3F09D03B681B68CB
:1020D000184602F00EFE3B681B68184602F0DEFD53
:1020E0003B685B68B3F1FF3F05D03B685B6800214C
:1020F000184602F0E0FD3B6893F82C30012B28D104
:102100003B6893F8303083F00103DBB2002B20D022
:102110007B6ADB6C43F000631A467B6ADA643B68D7
:10212000DB68B3F1FF3F05D03B68DB680021184650
:1021300002F0C1FD3B689B68B3F1FF3F09D03B68EB
:102140009B68184602F0D5FD3B689B68184602F074
:10215000A5FD3B6893F82F3083F00103DBB2002B21
:1021600006D07B6ADB6C43F080731A467B6ADA64C4
:1021700007F10C0300221A605A609A60DA601A6153
:102180005A613B681B68FB603B685B683B613B686E
:102190009B687B613B68DB68BB613B6893F82F30D1
:1021A00087F823303A6807F120032C321268114671
:1021B00019800233120C1A703B689B6AFB617B68C2
:1021C0001B6807F10C021146184602F09AFAFFF755
:1021D0008BFE0346002B02D0786802F0E1FD7B689D
:1021E00018683B6893F832200023034902F0C2FAD2
:1021F00000BF2837BD4680BD1003420080B588B0BF
:1022000000AFF860B9607A60FB68002B0ED108213E
:10221000544801F0B4FD1021534801F0B0FD40F2E4
:102220008D120221514805F0C9FCFEE7BB68002B66
:102230000ED108214B4801F0A2FD10214A4801F0BF
:102240009EFD4FF4C7720221484805F0B7FCFEE737
:10225000FB680433FB61FB6993F84830002B04D022
:102260006FF077033B613B6978E050220021F86909
:1022700009F051F9BB681A69FB691A60BB685A69B1
:10228000FB699A63BB689B69002B03D1FB69002241
:10229000DA6304E0BB689B695A1EFB69DA63BB68BA
:1022A0001B6A042B06D9BB68DA69FB699A61FB6972
:1022B0000022DA617B68002B04D0BB6893F83130D0
:1022C000002B01D0002301E04FF48073BB61BB6899
:1022D00093F83130002B06D0FB69DB6C43F001032F
:1022E0001A46FB69DA64FB697A685A60FB69012265
:1022F00083F84820FB681B68184602F0E1FD03469E
:1023000083F00103DBB2002B02D06FF08B0325E0DA
:10231000B968F868FFF7BEFEFB681A68BB6893F8F7
:1023200031301946104602F017FE034683F00103D0
:10233000DBB2002B02D06FF08B030FE07B68002B29
:1023400001D00B4A00E00022BB6913437B61FB68AC
:102350001B687969184602F018FB002318462037DD
:10236000BD4680BD94870000C88700009C870000A0
:1023700010020A0080B584B000AF786039607B68D5
:10238000002B0ED108212F4801F0F9FC17212E480F
:1023900001F0F5FC4FF4FE7202212C4805F00EFC12
:1023A000FEE73B68002B0ED10821264801F0E7FC30
:1023B0001721254801F0E3FC40F2FD1202212348D9
:1023C00005F0FCFBFEE77B680433FB60FB6893F8D9
:1023D0004830002B02D16FF076032FE0786800F0D0
:1023E0009BFA0346002B02D06FF00F0326E07B68B8
:1023F0001B68184602F01EFBFB685B68002B03D0CD
:102400003B681A69FB681A6039687868FFF742FE12
:102410007B681A68FB68DB6C03F00103002B14BFB8
:1024200001230023DBB21946104602F095FD034656
:10243000002B01D0002301E06FF08B03184610370A
:10244000BD4680BD94870000D88700009C870000AF
:1024500080B586B000AF78607B68002B0ED1082174
:10246000254801F08CFC1221244801F088FC4FF42F
:1024700007720221224805F0A1FBFEE77B680433C6
:102480007B617B681B683B617B6993F84830002B5C
:102490000ED10821184801F072FC1221174801F0F2
:1024A0006EFC40F222220221154805F087FBFEE770
:1024B0001449386902F08BFA386902F0C8F9012230
:1024C0000121786800F0CAFCF8600121786800F00A
:1024D00061FAF860786802F019FC7B690022DA641E
:1024E0007B69002283F848207B6900225A6000BF84
:1024F0001837BD4680BD00BF94870000F0870000FC
:102500009C87000010034A0080B582B000AF78605D
:102510007B68002B0ED108210C4801F030FC1621FD
:102520000B4801F02CFC40F245220221094805F03D
:1025300045FBFEE77B6893F84C30002B14BF01236A
:102540000023DBB218460837BD4680BD94870000E3
:10255000048800009C87000080B58AB000AFF86056
:10256000B9601346FB71FB680433BB61FB681B68F1
:102570007B61BB6993F84830012B0ED00821464897
:1025800001F0FDFB0921454801F0F9FB40F2B722BB
:102590000221434805F012FBFEE76FF00F033B6298
:1025A000BB699B6B002B10D1B968786901F090FE74
:1025B000034683F00103DBB2002B02D06FF015035A
:1025C00065E0002387F8273002E0012387F82730F1
:1025D00000F0F6FCBB69DB6C03F00103002B14BFB9
:1025E00001230023DBB21946786902F043FC03465D
:1025F000FB74FB7C002B27D0BB695B6C002B06DADD
:10260000786902F06CFA03461A46BB695A6497F877
:102610002730002B0ED0BB699A6BBB69DB6B134470
:10262000BA6812781A70BB699A6BBB69DB6B13448A
:10263000FB6101E0BB68FB61FB790122F969786904
:1026400002F0D0FC00233B6200F0CAFC3B6A002B86
:102650001CD1FB7983F00103DBB2002B16D0BB69E0
:10266000DB6C03F00103002B14BF01230023DBB25A
:102670000122F969786902F06CFD386200F0A0FC73
:10268000B969786902F0EFFC00F0AAFC3B6A1846D1
:102690002837BD4680BD00BF948700001C8800001D
:1026A0009C87000080B58AB000AFF860B9607A609E
:1026B0003B60FB68002B0ED10821944801F05FFBC2
:1026C0000E21934801F05BFB40F23B32022191481E
:1026D00005F074FAFEE7FB680433BB61FB681B6816
:1026E0007B61BB6993F84830012B0ED008218748E5
:1026F00001F045FB0E21864801F041FB4FF450727A
:102700000221844805F05AFAFEE7BB68002B0ED17F
:1027100008217E4801F033FB0E217D4801F02FFB9C
:1027200040F2413202217B4805F048FAFEE77B681F
:10273000002B0ED10821754801F021FB0E217448B1
:1027400001F01DFB40F242320221724805F036FAD8
:10275000FEE700237B627B68002B02D16FF006034B
:10276000D0E0BB695B68002B18D13B68002B15D10A
:10277000BB69DB6A002B0ED1BB697A68DA62002381
:102780007A68B968F86802F07DFD7862BB6900225A
:10279000DA627B6AB6E06FF00F03B3E03B6803F0E8
:1027A0000303002B07D03B687A68B968F86802F029
:1027B00069FD0346A6E0B968786901F089FD034622
:1027C00083F00103DBB2002B0FD0BB699B6B002BA6
:1027D00004D03B6803F00403002B02D06FF00C031D
:1027E0007B62012387F8233010E0BB69DB6C03F0C8
:1027F0000103002B07D03B6803F00403002B02D039
:102800004FF0FF337B62002387F823307B6A002B75
:1028100001D07B6A76E000F0D3FBBB69DB6A002B5A
:1028200018D1BB697A68DA62BB69BA689A6297F8AC
:102830002330002B06D0BB69DB6C43F002031A4641
:10284000BB69DA6497F823301A46B969786902F0EF
:10285000BDFC54E0BB695B6B002B4DD13B6803F0C2
:102860000403002B48D0BB699B6A1946786901F0C4
:102870002FFD0346002B3BD0BB69DB6C43F01003FC
:102880001A46BB69DA64BB69BA681A63BB697A68BD
:102890005A63002387F822300A23FB614FF4A871A2
:1028A000786902F02BF80346002B03D0012387F848
:1028B000223008E00120FFF745FBFB69013BFB618B
:1028C000FB69002BEAD197F82230002B0CD04FF493
:1028D000A871786902F001F87A68B968786902F03D
:1028E000D9F800237B620AE06FF08B037B6206E07D
:1028F0004FF0FF337B6202E06FF00F037B6200F06A
:102900006FFB7B6A18462837BD4680BD9487000060
:10291000288800009C87000080B584B000AF7860F4
:102920007B68002B0ED10821174801F028FA1A21E4
:10293000164801F024FA40F2CB320221144805F087
:102940003DF9FEE77B680433FB60FB6893F8483091
:10295000002B0ED108210C4801F011FA1A210B4866
:1029600001F00DFA40F2CF320221094805F026F9B4
:10297000FEE7FB68DB6A002B14BF01230023DBB2F8
:1029800018461037BD4680BD948700003888000087
:102990009C87000080B586B000AF78600B46FB7066
:1029A0007B68002B0ED10821244801F0E8F914219E
:1029B000234801F0E4F940F2D6320221214805F023
:1029C000FDF8FEE77B6804337B617B681B683B6135
:1029D000386902F02FFAF8607B69DB6A002B06D1B8
:1029E000F968386902F039FA6FF0760321E07B6903
:1029F0004C33D3E8EF1F41F00801C3E8E21F002A7F
:102A0000F7D10C21386902F034F8FB78002B0BD099
:102A10007969386902F044FB4FF49071386901F02C
:102A20005CFF7B690022DA62F968386902F015FA06
:102A3000002318461837BD4680BD00BF94870000AC
:102A4000548800009C87000080B584B000AFF86017
:102A5000B9607A604FF48471F86801F03EFF20217C
:102A6000F86801F083FF0C4B1946F86801F0AFFFDE
:102A7000F86802F0FAFCBB6800229A60BB6800228A
:102A80001A61B86802F0BBFC7968B86802F07CFC97
:102A900000BF1037BD4680BD10020A0080B586B069
:102AA00000AF786039607B68002B0ED10821634845
:102AB00001F065F91521624801F061F940F2D34255
:102AC0000221604805F07AF8FEE77B6804337B61F9
:102AD0007B681B683B617B694C33D3E8EF2F42F482
:102AE0008051C3E8E01F0028F7D1FA60FB6803F4C7
:102AF0008053002B02D06FF00F039BE03B6803F084
:102B00000403002B06D07B699B69002B02D14FF098
:102B1000FF338FE04C4B1946386901F058FF386994
:102B200001F07BFF4FF48871386901F0D6FE4FF455
:102B3000A671386901F0D1FE4FF4A271386901F035
:102B4000CCFE3B689B0303F480423B681B0303F409
:102B500000531A433B685B0303F400431343BB6019
:102B60007B694C33BA68D3E8EF0F40EA0200C3E850
:102B7000E10F0029F7D17B699B68002B07D17B69A6
:102B80005B68002B03D00321786902F0E2FB7B69CC
:102B90009B68002B10D1786902F052FA034683F04B
:102BA0000103DBB2002B01D0002343E0786902F07F
:102BB00026FC6FF00B033DE00421386901F0F4FEC0
:102BC0000346002B17D07B695B68002B13D07B6911
:102BD000DB6C03F40023002B0DD07B694C33D3E86E
:102BE000EF1F21F40021C3E8E21F002AF7D10621DC
:102BF000786902F0AEFB7B69DB6C03F48053002B39
:102C000017D04FF4A671386901F078FE034683F0BF
:102C10000103DBB2002B03D00021386901F029FF4A
:102C20007B695B68002B04D0074B1946386901F0BB
:102C3000ACFE002318461837BD4680BD94870000BF
:102C4000688800009C87000010020A0080B58AB0E6
:102C500000AFF860B9607A60FB68002B0ED10821E4
:102C6000414801F08CF81921404801F088F840F201
:102C7000755202213E4804F0A1FFFEE7FB680433D1
:102C80007B627B6A93F84830012B0ED008213648CE
:102C900001F075F81921354801F071F840F27952C8
:102CA0000221334804F08AFFFEE7BB68002B0ED1F7
:102CB00008212D4801F063F819212C4801F05FF834
:102CC00040F27A5202212A4804F078FFFEE77B683E
:102CD000002B0ED10821244801F051F81921234876
:102CE00001F04DF840F27B520221214804F066FFCA
:102CF000FEE7FB681B68BB61002387F823300023D5
:102D0000FB61B86902F096F878617B6ADB6C03F4CA
:102D10008023002B03D06FF07603FB6110E0B968CD
:102D2000B86901F0D5FA034683F00103DBB2002B4A
:102D300003D06FF00C03FB6102E0012387F823301E
:102D400097F82330002B06D07B68BA68796AB86997
:102D500002F088FCF8617969B86902F07EF8FB69D5
:102D600018462837BD4680BD948700008088000043
:102D70009C87000080B588B000AF78600B46FB7080
:102D80001346BB707B681B687B617B6804333B61C7
:102D90002021786901F0C8FD0346002B14BF0123F0
:102DA0000023FB733B69DB6C03F48223B3F5805F84
:102DB00008D0FB78002B02D03B690022DA616FF06B
:102DC000760345E0786902F035F8B861FB78002BAE
:102DD00005D1FB7B83F00103DBB2002B07D0202160
:102DE000786901F0C3FD4FF4A113FB6102E04FF4D9
:102DF0008033FB613B694C33FA69D3E8EF0F40EA5B
:102E00000200C3E8E10F0029F7D1BB78002B03D102
:102E10003B695B68002B12D10F4B1946786901F0B2
:102E2000D6FD0421786901F024FE3969786902F041
:102E3000E9FC094BDB43BA691340BB6103E00421A1
:102E4000786901F016FEB969786902F006F8002386
:102E500018462037BD4680BD10020A0080B582B0FA
:102E600000AF78600B46FB701346BB707B68002B8D
:102E70000ED10821164800F082FF1421154800F0F9
:102E80007EFF40F23C620221134804F097FEFEE709
:102E90007B6893F84C30012B0ED008210C4800F0D1
:102EA0006EFF14210B4800F06AFF40F23D620221E0
:102EB000094804F083FEFEE7BA78FB781946786883
:102EC000FFF758FF034618460837BD4680BD00BFD0
:102ED000948700009C8800009C87000080B584B027
:102EE00000AF786039607B68002B0ED10821314833
:102EF00000F045FF1421304800F041FF40F24462E9
:102F000002212E4804F05AFEFEE77B680433FB6082
:102F1000FB6893F84830012B0ED00821254800F0BB
:102F20002EFF1421244800F02AFF4FF4C962022129
:102F3000224804F043FEFEE7FB685B68002B02D0EA
:102F40004FF0FF3331E07B681B68184601F07FFDCE
:102F5000034683F00103DBB2002B0DD03B68002B4E
:102F600007D07B681B68184601F0DBFD02463B6812
:102F70001A606FF0770318E07B681B684FF4887164
:102F8000184601F0BBFC0346002B0CD03B68002B1D
:102F900007D07B681B68184601F0C3FD02463B68FA
:102FA0001A60002301E06FF00F0318461037BD468A
:102FB00080BD00BF94870000B08800009C8700009F
:102FC00080B400AF72B600BF044B1B680133034AE4
:102FD000136000BFBD4680BC704700BFD8290020E9
:102FE00080B500AF0F4B1B68002B0DD108210E4898
:102FF00000F0C5FE1B210D4800F0C1FE2C2202216D
:103000000B4804F0DBFDFEE7064B1B68013B054A5D
:103010001360044B1B68002B01D162B600BF00BFD8
:1030200080BD00BFD8290020C4880000D0880000DF
:10303000CC88000080B487B000AFF860B9607A60D7
:10304000FB681B687B617B69114A1A63BB68002BB4
:1030500001D0042200E000227B68002B01D0022373
:1030600000E000231A437B695A607B695B6843F088
:1030700001027B695A60BFF34F8F00BFBFF36F8FB0
:1030800000BF002318461C37BD4680BC704700BFF8
:1030900004AAFF0080B582B000AF786008461146F0
:1030A0001A460346FB700B46BB7013467B70FA78DA
:1030B0007B68A03253F8323003F48073002B0ED0BB
:1030C0000821244800F05BFE1521234800F057FE3C
:1030D0004FF46C720221214804F070FDFEE7FB788A
:1030E0007A68A033DB0013445B6803F48073002B21
:1030F0000ED00821174800F042FE1521164800F0B6
:103100003EFE40F2B1320221144804F057FDFEE7C2
:103110007B783A7C002A02D04FF4807100E00021D5
:10312000FA7819437B68A03243F83210BA783B7CB6
:10313000002B02D04FF4807100E00021FB780A439D
:103140007968A033DB000B445A6000BF0837BD46E6
:1031500080BD00BFEC88000058890000F4880000A2
:1031600080B584B000AFF8607B600B46FB721346FD
:10317000BB72FA7AFB6802F5C07253F8223003F48E
:103180008073002B0ED00821134800F0F8FD1821A1
:10319000124800F0F4FD40F2CE320221104804F053
:1031A0000DFDFEE7BB7A002B01D0102200E00022CB
:1031B0007B6813433A7E002A02D04FF4807100E00E
:1031C0000021FA7A1943FB6802F5C07243F8221015
:1031D00000BF1037BD4680BDEC880000F8880000B5
:1031E000F488000080B584B000AFF8607B600B46C7
:1031F000FB721346BB72FA7AFB6802F5E07253F871
:10320000223003F48073002B0ED00821134800F005
:10321000B6FD1621124800F0B2FD40F2DB32022169
:10322000104804F0CBFCFEE7BB7A002B01D0102243
:1032300000E000227B6813433A7E002A02D04FF45C
:10324000807100E00021FA7A1943FB6802F5E07210
:1032500043F8221000BF1037BD4680BDEC88000047
:1032600010890000F488000080B584B000AFF860D9
:10327000B96011461A460B46FB711346BB71FB68D9
:10328000BA6802F5007253F82230002B0EDB0821D9
:10329000234800F074FD1721224800F070FD4FF420
:1032A0007A720221204804F089FCFEE7FB68BA68C4
:1032B00002F5007253F8223003F48073002B0ED015
:1032C0000821174800F05BFD1721164800F057FD54
:1032D00040F2E9320221144804F070FCFEE7FB7969
:1032E000002B01D0102200E00022BB79002B01D07E
:1032F000202300E0002313433A7E002A02D04FF43B
:10330000807200E0002242EA0301FB68BA6802F51D
:10331000007243F8221000BF1037BD4680BD00BFC9
:10332000EC88000090890000F488000080B582B02D
:1033300000AF00233B603B6843F001033B603B6808
:1033400043F002033B603B6843F004033B6000230F
:103350007B600AE0094A7B6852F8233039681846D6
:1033600002F075FB7B6801337B607B68002BF1D03A
:1033700000BF00BF0837BD4680BD00BF5C210020F4
:1033800080B582B000AF00237B6000233B6032E059
:103390001D4A3B6852F823304FF48471184602F0FE
:1033A00046FB0346002B03D07B6843F004037B609D
:1033B000154A3B6852F823304FF48071184602F0EA
:1033C00036FB0346002B03D07B6843F001037B6090
:1033D0000D4A3B6852F823304FF48271184602F0D0
:1033E00026FB0346002B03D07B6843F002037B607F
:1033F0003B6801333B603B68002BC9D07B681846B3
:103400000837BD4680BD00BF5C21002080B582B07A
:1034100000AF00237B601DE0124A7B6852F8233026
:103420004FF48071184602F0EDFA0E4A7B6852F8AC
:1034300023304FF48271184602F0E4FA094A7B689F
:1034400052F823304FF48471184602F0DBFA7B689F
:1034500001337B607B68002BDED000BF00BF0837E4
:10346000BD4680BD5C21002080B584B002AF002342
:103470007B6017E07B68DBB21946174802F0F5FA6B
:10348000034683F00103DBB2002B08D07B68D9B27E
:1034900000230093072301220F48FFF761FE7B689A
:1034A00001337B607B681F2BE4D900233B600BE07A
:1034B0003B68D9B200230093072301220648FFF797
:1034C00091FE3B6801333B603B681F2BF0D900BF86
:1034D00000BF0837BD4680BD0030005080B58AB0BF
:1034E00002AFF860B9603B601346FB71FB68DB0B11
:1034F000BB61BB68DB0B7B61BB69FB610CE0FB69FB
:10350000D9B2FA7997F8283000933B680748FFF75B
:1035100027FEFB690133FB61FA697B699A42EED9A8
:1035200000BF00BF2037BD4680BD00BF0030005047
:1035300080B58AB002AFF860B9603B601346FB719A
:10354000FB6803F160435B0BBB61BB6803F1604345
:103550005B0B7B61BB69FB610CE0FB69D9B2FA795B
:1035600097F8283000933B680748FFF73BFEFB695C
:103570000133FB61FA697B699A42EED900BF00BF53
:103580002037BD4680BD00BF0030005080B586B0FA
:1035900002AF786039603A687B68D31A0133FB6008
:1035A0007B68C3F30E03C3F50043BB60FA68BB68D6
:1035B0009A420DD90821304800F0E1FB2D212F4817
:1035C00000F0DDFBF82202212D4804F0F7FAFEE7B7
:1035D0007A68BB681344C3F30E03002B0DD0082197
:1035E000254800F0CCFB2D21244800F0C8FBFB222D
:1035F0000221234804F0E2FAFEE7BB685A1EBB68CA
:103600001340002B0DD008211B4800F0B8FB2D21E2
:103610001A4800F0B4FBFF220221194804F0CEFA48
:10362000FEE7BB681F2B03D9BB68B3F5805F0ED9DB
:103630000821114800F0A3FB2D21104800F09FFB4A
:103640004FF4817202210E4804F0B8FAFEE7BB681D
:10365000B3FA83F3DBB2C3F11B03DAB27B68DB0B93
:10366000DBB20121009100210648FFF713FD00BFE6
:103670001037BD4680BD00BFEC88000028890000DF
:10368000F48800000030005080B586B002AF78604A
:103690000B46FB707B681B0BFB73124AFB7B03F52D
:1036A000007352F8233003F00303002B0ED10821DE
:1036B0000D4800F064FB1D210C4800F060FB4FF446
:1036C000A77202210A4804F079FAFEE7F97BFB7839
:1036D0000093012301220348FFF7C6FD00BF103706
:1036E000BD4680BD00300050EC88000070890000AD
:1036F000F488000080B586B002AF78600B46FB709E
:103700007B681B0BFB73124AFB7B03F5007352F8BB
:10371000233003F00303012B0ED108210D4800F0E4
:103720002EFB21210C4800F02AFB4FF4B672022137
:103730000A4804F043FAFEE7F97BFB780093002384
:1037400000220348FFF790FD00BF1037BD4680BD43
:1037500000300050EC880000A8890000F4880000C8
:1037600080B582B000AF78601621034800F007FBF7
:1037700000BF0837BD4680BDCC89000080B500AFD2
:10378000FFF7FEFD0346034A13600248FFF7E8FF18
:1037900000BF80BD1030002080B582B000AF7860DF
:1037A0000C220449786807F070FE00BF0837BD4658
:1037B00080BD00BF1030002080B483B000AF0C4B40
:1037C000DB687B607B689BB27B607B6823F00803CF
:1037D0007B607B6843F0BF6343F400337B60044A43
:1037E0007B68D36000BF0C37BD4680BC704700BF0C
:1037F00000ED00E080B500AF2E21024800F0BFFAD6
:1038000000BF80BDE489000080B483B000AF786061
:103810003960064A7B681360054A3B6813600023E1
:1038200018460C37BD4680BC704700BF1C300020D6
:103830002030002090B589B000AF7860544B1B68F1
:103840007A6852695A62524B1B687A6892699A6226
:103850004F4B1B687A68D269DA624D4B1B687A68F5
:10386000126A1A634A4B1B687A68526A5A63484B59
:103870001B687A68926A9A63454B1B687A68D26AB9
:10388000DA63434B1B687A68126B1A64404B1B68FF
:103890007A68526B5A603E4B1B687A68926B9A60EA
:1038A0003B4B1B687A68D26BDA60394B1B687A68CD
:1038B000126C1A61364B1B687A68526C5A61344B31
:1038C0001B687A68926C9A61314B1B687A68D26C7B
:1038D000DA612F4B1B687A68126D1A622C4B1B68D9
:1038E0007A68926D5A652A4B1B687A68D26D9A6520
:1038F000274B1B687A68126FDA65254B1B687A685C
:10390000126E1A66224B1B687A68926E5A66204BBA
:103910001B687A68526F9A661D4B1B68EFF38882AA
:103920007A617A695A641A4B1B68EFF38982BA612B
:10393000BA699A64164B1B687A685268DA64144B49
:103940001B68EFF39482FA61FA691A65104B1B68E1
:103950007A6812681A6707F108031846FFF71CFF18
:103960000B4B1B68BA68DA66094B1B6801221A7098
:10397000084B1B681C46640864002046214622460A
:10398000234607F02EFF00BF2437BD4690BD00BF81
:103990001C3000202030002080B5A0B000AF3B4696
:1039A0001846FDF7DDFE7B68002B14BF01230023C2
:1039B00087F87F3097F87F3083F00103DBB2002B6C
:1039C00015D17B68184602F01DF90346002B0ED175
:1039D0003B68052B01D0072B0BD100BF074B1B68A1
:1039E000002B07D03B461846FFF724FF02E000BF3C
:1039F00000E000BF8037BD4680BD00BF2030002002
:103A000080B400AFBFF34F8F00BF064BDB6803F4F9
:103A1000E0620449044B1343CB60BFF34F8F00BFF8
:103A200000BFFDE700ED00E00400FA0580B483B0BC
:103A300000AF134B1B68C3F30B037B60BFF34F8FC7
:103A400000BF104B1B683B60BFF34F8F00BFBFF33D
:103A50004F8F00BF7B68092B0CD13B68012B03D033
:103A60003B68022B02D003E0012304E0012302E0C3
:103A7000012300E0002318460C37BD4680BC704788
:103A80003001FF003401FF0090B58FB000AF7860C7
:103A9000396001237B6206233B627B685B680C2BE9
:103AA00003D13B685B68042B01D0022397E07B685D
:103AB0001B68FB613B681B68BB61BB694FF0FF3251
:103AC0001A6002237B63FB691B68002B03D0FB6930
:103AD0009B68002B01D1022381E0FB691B6819461A
:103AE000FB699A683B6A786A04F073FC78617B69C9
:103AF000002B01D0022372E000233B636BE03A4AC3
:103B00003B6B52F833303B61374A3B6BDB0013446D
:103B10005B68FB60FB695B683A699A4258D8FB694D
:103B20005A68FB699B681A443969FB680B449A42DE
:103B30004ED83B692D4A93423AD93B692C4A93426D
:103B400036D8FB695B68FB62FB691B68BB62294B6B
:103B5000BB60FB6A03F00303002B0DD1FB699B687C
:103B600003F00303002B07D1FB695A68FB699B68CC
:103B70001344BA689A4211D2032330E0FB6A1A1D3B
:103B8000FA62BC6A221DBA62184602F0DCF80346EB
:103B90002360FB699B681A1FFB699A60FB699B683D
:103BA000002BEBD1BB6900221A6000237B6315E078
:103BB000FB691868FB695B681946FB699B681A46D4
:103BC00007F063FCBB6900221A6000237B6305E0F9
:103BD0003B6B01333B633B6B032B90D97B6B1846EC
:103BE0003C37BD4690BD00BF148A0000FF7FFF0038
:103BF000FF8FFF000090FF0080B48FB000AF7860AF
:103C000039607B685B680C2B03D13B685B68042BD5
:103C100001D0022384E07B681B687B623B681B68E1
:103C20003B623B6A01221A6002237B6300233B63F1
:103C300072E03E4A3B6B1B0113441B68FB613B4A2D
:103C40003B6B1B01134404331B68BB6100237B6186
:103C50007B6A1B68FA699A425BD13B6A02221A604E
:103C60007B6A9B68BA699A4253D17B69002B36D034
:103C70002E4A3B6B1B01134408331B68002B2ED0CC
:103C8000002387F82F300023BB6219E0274A3B6BE3
:103C90001B01134408331A68BB6A9B0013441B685A
:103CA0003B617B6A5A687B6A9B6813403A699A4217
:103CB00003D1012387F82F3006E0BB6A0133BB62D2
:103CC000BB6A7A699A42E1D897F82F3083F00103F2
:103CD000DBB2002B03D03B6A03221A601FE0FB69B2
:103CE0001B68FB607B6A9B68DB43FA681340FB60E0
:103CF0007B6A5A687B6A9B681340FA681343FB60CF
:103D0000FB69FA681A603B6A00221A6000237B6331
:103D100005E03B6B01333B633B6B002B89D07B6B36
:103D200018463C37BD4680BC704700BF348A00004F
:103D300080B400AF00231846BD4680BC704780B5F4
:103D400000AFFFF7F5FF034683F00103DBB2002B62
:103D500080BD80B485B000AF78607B681B68FB6075
:103D6000BFF34F8F00BFFB68B3F1FF3F0CBF0123D0
:103D70000023DBB218461437BD4680BC704780B5BF
:103D800082B000AF7860396039687868FDF778FDF7
:103D9000034618460837BD4680BD80B483B000AFE7
:103DA00078607B689B0903F00103002B14BF01239B
:103DB0000023DBB218460C37BD4680BC704780B488
:103DC00083B000AF78607B6803F00803002B14BF5A
:103DD00001230023DBB218460C37BD4680BC704778
:103DE00080B584B000AF78607868FFF7D6FF0346EF
:103DF000002B11D07B6803F00403002B07D07868F8
:103E0000FFF7DDFF0346002B01D0012300E0002374
:103E100003F00103DBB219E0EFF39483BB60BB68EE
:103E200003F00203002B14BF01230023FB73FB7B71
:103E3000002B07D07868FFF7C2FF0346002B01D0A4
:103E4000012300E0002303F00103DBB21846103722
:103E5000BD4680BD80B588B000AFF860B9607A60BB
:103E6000F868FFF7BDFF0346FB77F868FFF795FF9B
:103E70000346002B06D0FB7F002B01D07B680DE0B2
:103E8000BB680BE0FB7F002B04D0EFF38983BB61A1
:103E9000BB6903E0EFF388837B617B6918462037B9
:103EA000BD4680BD80B584B000AF03463960FB716C
:103EB0003B685B681846FFF770FF3B685B68184615
:103EC000FFF77DFFEFF38883BB60EFF38983FB602F
:103ED00000BF1037BD4680BD80B483B000AF7860AE
:103EE0007B6803F06043B3F1005F0CBF0123002344
:103EF000DBB218460C37BD4680BC704780B400AFBB
:103F0000002343F001031846BD4680BC704780B5CE
:103F100084B000AF786039603B6803F164003B68AF
:103F2000596D3B689B6D1A46FDF742FD38683B684A
:103F3000643300221946FEF761F9F860FB68002B34
:103F400002DA6FF0010306E03B680022DA653B68A5
:103F500000221A66002318461037BD4680BD80B582
:103F600082B000AF78607B681846FEF771FA0023D4
:103F700018460837BD4680BD80B483B000AF034605
:103F80003960FB71FB79022B01D1002301E06FF056
:103F9000030318460C37BD4680BC704780B598B007
:103FA00000AFF860B9607A607B681846FEF7ACFA3B
:103FB000034683F00103DBB2002B02D04FF0FF3346
:103FC00048E0F868FFF788FF034683F00103DBB29F
:103FD000002B27D00023FB651FE0BA68FB6DD31AC6
:103FE000402B28BF40237B65FA68FB6DD11807F191
:103FF00010037A6D184607F048FA07F110037A6843
:10400000796D1846FFF7CAFF38653B6D002B01D06C
:104010003B6D1FE0FB6D4033FB65FA6DBB689A4258
:10402000DBD316E078680023BA68F968FEF73AFB3C
:10403000B865BB6D13F1100F02D16FF0010309E0F9
:10404000BB6D002B02DA4FF0FF3303E07B68BA68E8
:10405000DA65002318466037BD4680BD80B588B05C
:1040600000AFF860B9607A607B681846FEF74CFADA
:10407000034683F00103DBB2002B02D04FF0FF3385
:1040800052E07B68BA68F9681846FEF7DFFDF86110
:10409000FB6913F1100F02D16FF0010344E0FB69DB
:1040A000002B02DA4FF0FF333EE00323BB617B6855
:1040B000B9691846FEF7F2FCF861FB6913F1100FBD
:1040C00002D16FF001032FE0FB69002B02DA4FF001
:1040D000FF3329E000237B617B6807F1140211465E
:1040E0001846FEF7FBFEF861FB6913F1100FF3D0E1
:1040F000FB6913F1780F03D07B69BA689A4202D941
:104100004FF0FF3310E07B68012201211846FEF7D3
:10411000A5FEF861FB69002B02DA4FF0FF3303E0E4
:104120007B68BA681A66002318462037BD4680BDF2
:1041300080B485B000AFF860B9607A606FF00303B7
:1041400018461437BD4680BC704780B483B000AFBA
:1041500078607B68DB6D18460C37BD4680BC7047C5
:1041600080B483B000AF78607B681B6E18460C3754
:10417000BD4680BC704780B582B000AF78603960C2
:104180007B68152B0FD07B68162B19D13B684FF03D
:10419000FF329A663A683B68643319461046FEF768
:1041A000E9F803460DE03B684FF0FF325A663A6883
:1041B0003B68643319461046FEF7DCF8034600E01E
:1041C000002318460837BD4680BD80B586B000AFD5
:1041D000F860B9607A60FB68DBB27B617B69012BB8
:1041E00007D07B69002B22D07B69153B012B1ED8A1
:1041F00006E07A68B968F868FDF738FC034618E00D
:10420000BB68002B11D179687869FFF7B4FF38617A
:104210003B6913F1100F02D16FF0010309E03B6914
:10422000002B02DA4FF0FF3303E0002301E06FF0D0
:10423000030318461837BD4680BD80B483B000AF75
:1042400000237B607B6818460C37BD4680BC7047F6
:1042500080B483B000AF0346FB716FF003031846D0
:104260000C37BD4680BC704780B483B000AF0023DC
:104270007B607B6818460C37BD4680BC704780B4B5
:1042800083B000AF78607B681B0B5BB218460C37BD
:10429000BD4680BC704780B483B000AF78607B6857
:1042A0001B6800BF0C37BD4680BC704780B400AFB0
:1042B00000BFBD4680BC704780B400AF00BFBD46A4
:1042C00080BC704780B400AF00BFBD4680BC704763
:1042D00080B483B000AF786039603B6803F060431E
:1042E000B3F1005F0CBF01230023DBB218460C378B
:1042F000BD4680BC704780B483B000AF7860396041
:104300007A683B6813441B68002B14BF0123002309
:10431000DBB218460C37BD4680BC704780B582B012
:1043200000AF78600B467B807B887A68134400225C
:104330001A607B887A6813441846FFF7ACFF00BF09
:104340000837BD4680BD80B582B000AF78600B46AF
:104350007B807B8819467868FFF7CDFF03461846B7
:104360000837BD4680BD80B483B000AF7860396047
:104370007B68D3F800223B68134018460C37BD46D3
:1043800080BC704780B483B000AF786039607B68D0
:10439000D3F800223B681A437B68C3F8002200BFB1
:1043A0000C37BD4680BC704780B483B000AF7860E6
:1043B00039607B68D3F800223B68DB431A407B6896
:1043C000C3F8002200BF0C37BD4680BC704780B4E4
:1043D00083B000AF786039607B683A68C3F8042323
:1043E00000BF0C37BD4680BC704780B483B000AFBF
:1043F000786039607B68D3F804233B681340184623
:104400000C37BD4680BC704780B483B000AF786085
:1044100039607B683A68C3F8082300BF0C37BD4693
:1044200080BC704780B483B000AF78607B68D3F8FD
:10443000803418460C37BD4680BC704780B483B0CA
:1044400000AF786039607B683A68C3F8802400BFA9
:104450000C37BD4680BC704780B483B000AF786035
:104460007B680822C3F8002500BF0C37BD4680BC1E
:10447000704780B483B000AF78607B680022C3F8D7
:10448000002500BF0C37BD4680BC704780B483B0A8
:1044900000AF78607B68D3F80035082B0CBF012390
:1044A0000023DBB218460C37BD4680BC704780B491
:1044B00085B000AFF860B9607A60FB68BA68C3F88D
:1044C0000C25FB687A68C3F8142500BF1437BD4675
:1044D00080BC704780B582B000AF78604FF0FF328B
:1044E0004FF0FF317868FFF7E2FF00BF0837BD46A5
:1044F00080BD80B483B000AF78607B68D3F80C35A2
:1045000018460C37BD4680BC704780B483B000AFFE
:1045100078607B68D3F8143518460C37BD4680BCEC
:10452000704780B483B000AF78607B68D3F80835FB
:1045300018460C37BD4680BC704780B483B000AFCE
:1045400078607B68D3F8103518460C37BD4680BCC0
:10455000704780B485B000AFF860B9607A60FB68DE
:10456000BA68C3F80825FB687A68C3F8102500BF4D
:104570001437BD4680BC704780B582B000AF78600C
:104580004FF0FF324FF0FF317868FFF7E2FF00BFD6
:104590000837BD4680BD80B483B000AF78600B465D
:1045A000FB70FB787A68134401221A6000BF0C3755
:1045B000BD4680BC704780B483B000AF786039607E
:1045C0003B685A783B689B781343DAB23B681B78A8
:1045D0001343DBB21A467B68C3F86C2500BF0C3767
:1045E000BD4680BC704780B483B000AF786039604E
:1045F0007B683A68C3F8242500BF0C37BD4680BCF1
:10460000704780B483B000AF786039607B683A68E7
:10461000C3F8482500BF0C37BD4680BC704780B446
:1046200083B000AF786039603A687B68C3F844258E
:1046300000BF0C37BD4680BC704780B584B000AF6A
:10464000F860B9607A60B968F868FFF7E8FF7968E0
:10465000F868FFF7D6FF00BF1037BD4680BD80B4B5
:1046600083B000AF78607B68D3F8443518460C37C8
:10467000BD4680BC704780B483B000AF78607B6873
:10468000D3F84C3518460C37BD4680BC704780B413
:1046900083B000AF786039607B683A68C3F838252A
:1046A00000BF0C37BD4680BC704780B483B000AFFC
:1046B000786039603A687B68C3F8342500BF0C37EE
:1046C000BD4680BC704780B584B000AFF860B9606B
:1046D0007A60B968F868FFF7E8FF7968F868FFF76B
:1046E000D6FF00BF1037BD4680BD80B483B000AF99
:1046F00078607B68D3F83C3518460C37BD4680BCE3
:10470000704780B582B000AF786039603B681B6944
:1047100019467868FFF767FF3B68143319467868D5
:10472000FFF749FF3B68DB7D83F00103DBB2002B21
:1047300007D03B6819683B685B681A467868FFF7E2
:10474000B6FE3B681B7D012B0ED13B68DB7D83F001
:104750000103DBB2002B07D03B6899683B68DB683C
:104760001A467868FFF7F5FEFFF7A0FD00BF08378F
:10477000BD4680BD80B584B000AFF860B960114619
:104780001A460B46FB711346BB714FF48072B96831
:10479000F86800F0D7F94FF48272B968F86800F051
:1047A000D1F94FF48472B968F86800F0CBF94FF48E
:1047B0008872B968F86800F0C5F94FF48E72B9686C
:1047C000F86800F0BFF94FF49072B968F86800F02B
:1047D000B9F94FF49272B968F86800F0B3F94FF480
:1047E000A272B968F86800F0ADF94FF4A672B96822
:1047F000F86800F0A7F94FF4A872B968F86800F0FB
:10480000A1F94FF4AC72B968F86800F09BF9FFF7B2
:104810004DFDF868FFF733FD03461A46FB7919464C
:104820001046FDF737FBF868FFF729FD03461846E9
:10483000FDF7F0FABB79002B03D0B968F868FFF7F1
:10484000C6FDFFF733FD00BF1037BD4680BD80B504
:1048500082B000AF78607868FFF711FD0346184614
:10486000FDF7F4FAFFF722FD00BF0837BD4680BD13
:1048700080B582B000AF78603960FFF723FD7868BB
:10488000FFF737FE02463B681A607868FFF73DFE87
:1048900002463B685A607868FFF743FE02463B6871
:1048A0009A607868FFF749FE02463B68DA60FFF7D6
:1048B00003FD00BF0837BD4680BD80B582B000AFA4
:1048C00078607868FFF706FE7868FFF755FEFFF717
:1048D000EDFC00BF0837BD4680BD80B582B000AF9B
:1048E00078600B467B807B8819467868FFF716FD59
:1048F000FFF7DCFC00BF0837BD4680BD80B584B043
:1049000000AF78600B467B80FFF7D6FC7B881946AA
:104910007868FFF718FD0346FB73FFF7CDFCFB7BC0
:1049200018461037BD4680BD80B584B000AF7860B2
:104930003960FFF7C7FC39687868FFF714FDF86045
:10494000FFF7BAFCFB6818461037BD4680BD80B53E
:1049500082B000AF7860396039687868FFF712FD7F
:10496000FFF7A4FC00BF0837BD4680BD80B582B00C
:1049700000AF7860396039687868FFF715FDFFF798
:1049800095FC00BF0837BD4680BD80B582B000AF42
:104990007860396039687868FFF719FDFFF786FCA1
:1049A00000BF0837BD4680BD80B584B000AF7860D9
:1049B0003960FFF787FC39687868FFF716FDF86003
:1049C000FFF77AFCFB6818461037BD4680BD80B5FE
:1049D00082B000AF7860396039687868FFF714FDFD
:1049E000FFF764FC00BF0837BD4680BD80B584B0CA
:1049F00000AF7860FFF766FC7868FFF713FDF8609A
:104A0000FFF760FCF9687868FFF718FDFFF75AFCBC
:104A1000FB6818461037BD4680BD80B582B000AF38
:104A200078607868FFF718FDFFF740FC00BF083793
:104A3000BD4680BD80B582B000AF78607868FFF772
:104A400018FDFFF733FC00BF0837BD4680BD80B5B9
:104A500084B000AF7860FFF735FC7868FFF716FD8B
:104A60000346FB73FFF728FCFB7B18461037BD4657
:104A700080BD80B582B000AF78600B46FB70FB78DC
:104A800019467868FFF787FDFFF710FC00BF08376D
:104A9000BD4680BD80B584B000AFF860B9607A6073
:104AA000BB68002B06D07A68B968F868FFF7C5FDC7
:104AB000FFF7FCFB00BF1037BD4680BD80B584B05A
:104AC00000AF7860FFF7F8FB7868FFF7C8FDF86083
:104AD000FFF7F2FBFB6818461037BD4680BD80B576
:104AE00084B000AF7860FFF7E7FB7868FFF7C3FD9D
:104AF000F860FFF7E1FBFB6818461037BD4680BD44
:104B000080B584B000AFF860B9607A607A68B9683F
:104B1000F868FFF7D8FDFFF7C9FB00BF1037BD46A7
:104B200080BD80B584B000AF7860FFF7C5FB7868C2
:104B3000FFF7DBFDF860FFF7BFFBFB681846103797
:104B4000BD4680BD80B584B000AFF860B960134643
:104B5000FB80FB88A3F580739B0801229A40BB6809
:104B60001340002B04D0FB881946F868FFF7D6FBEA
:104B700000BF1037BD4680BD80B584B002AF7860FD
:104B80000023019300230093002301220121786870
:104B9000FDF742FA00BF0837BD4680BD80B584B03E
:104BA00002AF78600B46FB70FB7800220192002276
:104BB0000092002200217868FDF72EFA00BF083726
:104BC000BD4680BD80B584B002AF786000230193FC
:104BD000002300930023012200217868FDF71CFACE
:104BE00000BF0837BD4680BD80B584B000AF786097
:104BF0003B1D1846FDF7CAF9F8607B68012202FAEE
:104C000003F31946F86800F004F800BF1037BD46FA
:104C100080BD80B483B000AF786039607B683A684B
:104C20009A6000BF0C37BD4680BC704780B485B029
:104C300000AF78607B685B09FB600023BB60FB68AA
:104C4000002B12D14FF0FF33BB607B6803F01F03D2
:104C50007B60BA687B6822FA03F303F00103002B40
:104C600014BF01230023DBB200E0002318461437F1
:104C7000BD4680BC704780B485B000AF78607B686B
:104C80001B68FB60FB6803F01F027B681A60FB680F
:104C90005B0918461437BD4680BC704780B582B0AA
:104CA00000AF78607868FFF767FFFFF7FFFA00BF93
:104CB0000837BD4680BD80B582B000AF78600B4636
:104CC000FB70FB7819467868FFF768FFFFF7EEFA8C
:104CD00000BF0837BD4680BD80B582B000AF7860A8
:104CE0007868FFF76FFFFFF7E1FA00BF0837BD46AE
:104CF00080BD80B582B000AF78607868FFF774FF40
:104D0000FFF7D4FA00BF0837BD4680BD80B588B034
:104D100000AF78607B680433FB617B681B6807F138
:104D20000C0211461846FFF7A3FDFB69DB6C03F08C
:104D30008073002B04D07B681B681846FFF7BDFD0D
:104D4000FB69DB6C03F00073002B25D0FB68B3F12B
:104D5000FF3F03D0FB681846FFF7BEFF3B69B3F186
:104D6000FF3F03D03B691846FFF7B6FFFB69DB6CDA
:104D700003F00063002B0FD0BB69B3F1FF3F03D0FA
:104D8000BB691846FFF7A8FF7B69B3F1FF3F03D06B
:104D90007B691846FFF7A0FF00BF2037BD4680BDE6
:104DA00080B586B000AF78607B681B6803F26453FF
:104DB000FB607B681B6803F5AD63BB60BB681B6869
:104DC000012B05D17B681B680C211846FFF751FEAB
:104DD000FB681B68012B29D17B681B681846FFF70D
:104DE0001CFE7B681B6804211846FFF742FE002367
:104DF000FB7549F640433B61FB681B68002B02D101
:104E00000123FB7508E00120FDF79CF83B69013B9D
:104E10003B613B69002BEFD17B681B681846FFF7AD
:104E2000E5FD7B681B681846FFF704FE00BF1837D6
:104E3000BD4680BD80B584B000AF78604FF0FF31D3
:104E40007868FFF7B1FDF860F9687868FFF7BFFD93
:104E5000FB6818461037BD4680BD80B582B000AFF4
:104E60007860396039687868FFF78FFD00BF0837D0
:104E7000BD4680BD80B582B000AF78600B46FB7048
:104E80004FF4AC717868FFF739FD0346002B0DD164
:104E9000FB7883F00103DBB2002B09D04FF4907153
:104EA0007868FFF72BFD0346002B01D0012300E0BB
:104EB000002303F00103DBB218460837BD4680BD6E
:104EC00080B584B000AF78604FF4A6717868FFF7C2
:104ED00015FD0346002B3AD07868FFF79EFD0421AC
:104EE0007868FFF7C6FD0023FB736423BB604FF4B3
:104EF000A2717868FFF702FD0346002B07D14FF43B
:104F000092717868FFF7FAFC0346002B02D0012368
:104F1000FB7308E00A20FDF715F8BB68013BBB6096
:104F2000BB68002BE3D14FF4A6717868FFF7D5FC7E
:104F30004FF488717868FFF7D0FC4FF4A27178685D
:104F4000FFF7CBFC7868FFF775FDFB7B00E00123E2
:104F500018461037BD4680BD80B586B000AF78607A
:104F60000B46FB700023FB737868FFF756FD07F1D3
:104F70000F03002219467868FFF78CFD0821786836
:104F8000FFF777FD0C217868FFF773FD0023FB75B1
:104F90000A233B6101217868FFF76CFF0346002B71
:104FA00002D00123FB7508E00120FCF7CBFF3B6931
:104FB000013B3B613B69002BECD1FB7D83F001039E
:104FC000DBB2002B01D0002308E04FF49071786829
:104FD000FFF783FC7868FFF72DFD0123184618378B
:104FE000BD4680BD80B584B000AFF860B9607A601E
:104FF000FB707A68B968F868FFF74CFD4FF4907160
:10500000F868FFF76AFC4FF4AC71F868FFF765FCCD
:105010004FF4A871F868FFF760FCF868FFF7FDFC33
:10502000FB78002B04D04FF48001F868FFF7ADFC4B
:105030000821F868FFF71DFD00BF1037BD4680BD91
:1050400080B483B000AF78607B68DB6C1B0B03F02F
:105050000103002B14BF01230023DBB218460C37D9
:10506000BD4680BC704780B582B000AF78603960C3
:105070004FF4AC717868FFF741FC0346002B0BD06E
:105080003868FFF7DDFF034683F00103DBB2002B36
:1050900002D07868FFF7CEFC00BF0837BD4680BD60
:1050A00080B584B000AF786039603B68DB6C03F09A
:1050B0000103002B14BF01230023BB730123FB73E7
:1050C00000BFBB7B19467868FFF7D4FE034683F028
:1050D0000103DBB2002BF4D1FDF772FFBB7B83F041
:1050E0000103DBB2002B1AD04FF490717868FFF700
:1050F00005FC0346002B0FD00C217868FFF7B9FCA4
:1051000000BF01217868FFF7B5FE034683F0010375
:10511000DBB2002BF5D10FE00023FB730CE04FF462
:10512000AC717868FFF7EAFB034683F00103DBB25A
:10513000002B01D00023FB73FB7B002B03D03968CD
:105140007868FFF790FFFDF74BFF00BF1037BD46B3
:1051500080BD80B588B000AFF860B9607A60FB7040
:10516000FB781946F868FFF785FE0346FB77F86879
:10517000FFF7B5FCB861F868FFF7A0FC7861FB7F2A
:10518000002B04D17A69BB689A4200D1E8E77A69BA
:10519000BB689A4206D17A68BB699A4202D94FF03D
:1051A000FF3300E000233B613B69002B09D1FB7812
:1051B00083F00103DBB2002B03D00C21F868FFF76A
:1051C00058FC3B6918462037BD4680BD80B588B085
:1051D00000AFF860B9601346FB71BB68DB6C03F08D
:1051E0000103002B14BF01230023DBB21946F8682A
:1051F000FFF740FE034683F00103DBB2002B0DD026
:10520000BB68DB6C43F004031A46BB68DA644FF4F6
:105210008001F868FFF7B9FB00232FE0FB79002B32
:105220001BD0BB68DA6ABB681B6CD21ABB68DB6B2D
:10523000934228BF13467B61BB68986BBB689A6A30
:10524000BB681B6C13447A69194606F01EF9BB68EB
:105250009B6BFB617B69BB6105E0BB689B6AFB6183
:10526000BB68DB6ABB61BB684FF0FF325A64012345
:10527000BA69F969F868FFF7B5FE012318462037C7
:10528000BD4680BD80B588B000AFF860B9607A6077
:105290003B60FB6804337B617B695B68002B06D055
:1052A0003B6803F00203002B01D0012300E0002340
:1052B000FB74FB7C03F00103FB740023FB61FB7CAC
:1052C000002B03D07B699B6B002B05D07B69DB6CCB
:1052D00003F01003002B02D04FF0FF3335E0002322
:1052E000BB612DE0BA68BB691344FA7C1946F868C3
:1052F000FDF732F9F861FB69002B05D0FB6913F16A
:10530000100FEFD0FB6920E000BF7B695B68002BCA
:1053100013D17B69DB6C03F00803002B0DD07B6994
:105320004C33D3E8EF1F21F00801C3E8E21F002A45
:10533000F7D14FF0FF33FB6106E0BB690133BB617E
:10534000BA697B689A42CDD3FB6918462037BD46BF
:1053500080BD80B586B000AF78600B46FB7007F16A
:10536000080300221A605A609A60DA60FB783B7288
:105370007B685B687A68116807F1080210469847F5
:1053800000BF1837BD4680BD80B586B000AF7860DD
:10539000396007F1080300221A605A609A60DA60E7
:1053A00004233B723B68FB607B685B687A6811682A
:1053B00007F108021046984700BF1837BD4680BD68
:1053C00080B588B000AFF860B9607A6007F110036B
:1053D00000221A605A609A60DA6001233B74BB684D
:1053E0007B617B68BB61FB685B68FA68116807F1E9
:1053F00010021046984700BF2037BD4680BD80B4DC
:1054000083B000AF78607B684C33D3E8EF1F21F4A2
:105410007F0121F47041C3E8E21F002AF5D100BFEB
:105420000C37BD4680BC704780B582B000AF786055
:105430004FF4AC717868FFF761FA034683F001031B
:10544000DBB2002B07D14FF480017868FFF7ACFA8C
:105450000346002B01D0012300E0002303F00103E9
:10546000DBB218460837BD4680BD80B582B000AFBC
:105470007860FDF7A5FD7868FFF7D6FF034683F057
:105480000103DBB2002B02D07868FFF7D3FAFDF7F7
:10549000A7FD00BF0837BD4680BD80B58CB000AF0A
:1054A000F860B9607A60FB70002387F82F30FB68E2
:1054B0001B6ABB6297F82F3083F00103DBB2002B2D
:1054C00005D07A68B968F868FFF77AFF49E0BB6AE7
:1054D0001B68002B44D0BB6A1A68BB6A9B6A1344E2
:1054E0007A68B968184605F0D0FFBB6A9A6A7B688B
:1054F0001A44BB6A9A62BB6A5A68BB6A9B6A9A4240
:105500000CBF0123002387F8273097F82730002BA2
:1055100002D1FB78002B24D0BB6A1B683B62BB6ABC
:105520009B6AFB61BB6A00229A62BA6ABB6A083353
:1055300093E8030082E80300BB6A00229A60BB6A1A
:105540000022DA60BB6A5B68002B03D0BB6A0122D1
:1055500083F82D20FA69396AF868FFF731FF00E017
:1055600000BF3037BD4680BD80B586B000AF7860E3
:1055700039603B68DB69002B01D101236EE03B6899
:10558000DA693B68DB689A424DD33B689B687B6174
:105590003B68DB683B613B6800229A603B68002205
:1055A000DA603B689B693A691946786905F06DFFD6
:1055B0003B68DA693B69D21A3B68DA613B689869F3
:1055C0003B689A693B69D1183B68DB691A4605F06C
:1055D00041FF3B685B68002B23D03B68DB6C03F426
:1055E0000053002B14BF01230023FB73FB7B002B14
:1055F00009D03B684C33D3E8EF1F41F48021C3E866
:10560000E21F002AF7D100233A6979693868FFF769
:1056100044FFFB7B002B04D0002239687868FDF73B
:1056200013FA00231AE03B6898683B6899693B6865
:10563000DB691A4605F029FF3B68DA693B685A6264
:105640003B680022DA613B684C33D3E8EF1F41F43A
:105650000021C3E8E21F002AF7D1012318461837BA
:10566000BD4680BD80B586B000AFF860B9607A6095
:105670003B6000237B61BB689B68002B0BD0BB6841
:105680005B68002B4DD14FF48871F868FFF736F94D
:105690000346002B45D0BB689B68002B04D04FF419
:1056A0008871F868FFF719F9BB687A689A60BB6877
:1056B0003A68DA60B968F868FFF756FF0346002BCE
:1056C0004DD0BB689A68BB685B6AD118BB68DA6862
:1056D000BB685B6AD31A1A46F868FFF711FABB6811
:1056E000DB6C03F48053002B39D0BB684C33D3E818
:1056F000EF1F21F48021C3E8E21F002AF7D1002127
:10570000F868FFF7B6F94FF4A271F868FFF7F6F8FA
:105710000346002B23D04FF4A271F868FFF7DDF8A1
:105720001DE0BB681B69002B15D1BB687A681A6144
:10573000BB683A685A613A687968F868FFF7E0F937
:10574000BB68DB6C03F48043002B09D02021F86890
:10575000FFF7FDF804E06FF00F037B6100E000BF8E
:105760007B6918461837BD4680BD80B582B000AF52
:10577000786039603B68DB6C03F40043002B03D195
:105780003B680022DA613AE04FF4A6717868FFF7CF
:10579000A4F83B689B69052219467868FFF7B0F9C1
:1057A0004FF488717868FFF798F82C217868FFF734
:1057B00060F900BF4FF488717868FFF79FF80346DF
:1057C00083F00103DBB2002BF4D14FF488717868C9
:1057D000FFF783F84FF4A6717868FFF78FF8034658
:1057E000002B04D07868FFF79CF9034600E0002303
:1057F0003A68D3614FF4A6717868FFF76EF80837FE
:10580000BD4680BD80B582B000AF7860396000BF12
:105810004FF4A2717868FFF771F8034683F0010333
:10582000DBB2002BF4D14FF4A6717868FFF755F87E
:105830004FF488717868FFF750F84FF4A2717868D8
:10584000FFF74BF839687868FFF78FFF7868FFF744
:105850000CFE3B6800229A603B6800221A6138689F
:10586000FFF7CDFD00BF0837BD4680BD80B489B0CD
:1058700000AF786039607B681B68FB610023FB76B2
:105880003B685B6803F01F03002B01D0012354E049
:10589000FB691B681B0ADBB27B613B681B687A698A
:1058A0009A4201D8012348E0FB695B683B61FB69D0
:1058B00000225A603B681B68DAB2FB699A603B6859
:1058C0005B6823F01F03FB603B689B7CDB0003F0FD
:1058D0001803FA681343FB603B685B7C5B0003F0D2
:1058E0000603FA681343FB603B681B7C03F001036B
:1058F000FA681343FB60FB69FA68DA603B689B68EF
:10590000013B23F01F03BB603B68DB685B0003F0D7
:105910000E03BA681343BB60BB6843F00103BB606E
:10592000FB69BA681A61FB693A695A60BFF34F8F25
:1059300000BFBFF36F8F00BFFB7E18462437BD4604
:1059400080BC704780B487B000AF786039607B68F6
:105950001B687B610023FB747B695B68FB607B6970
:1059600000225A603B68DAB27B699A607B69002248
:10597000DA607B6900221A617B69FA685A60FB7CF5
:1059800018461C37BD4680BC704780B586B000AF56
:1059900078607B681B683B613B691B681B0ADBB254
:1059A000FB6000237B6106E079697868FFF7CAFF36
:1059B0007B6901337B617A69FB689A42F4D30023E7
:1059C00018461837BD4680BD80B483B000AF7860FC
:1059D0007B681B6800BF0C37BD4680BC704780B435
:1059E00083B000AF786039607A683B6813441B6805
:1059F000002B14BF01230023DBB218460C37BD4631
:105A000080BC704780B582B000AF78600B467B8069
:105A10007B887A68134400221A607B887A68134472
:105A20001846FFF7D1FF00BF0837BD4680BD80B5DF
:105A300082B000AF78600B467B807B88194678681F
:105A4000FFF7CDFF034618460837BD4680BD80B43A
:105A500083B000AF786039607B683A68C3F804238C
:105A600000BF0C37BD4680BC704780B485B000AF26
:105A700078600B46FB700023FB73FB7B18461437E2
:105A8000BD4680BC704780B483B000AF78607B684F
:105A9000DB0318460C37BD4680BC704780B483B02A
:105AA00000AF78607B680133DB03013B18460C379D
:105AB000BD4680BC704780B400AF00231846BD4689
:105AC00080BC704780B400AF1F231846BD4680BC21
:105AD000704780B400AF4FF400431846BD4680BC09
